:03000000020800F3
:0C080000787FE4F6D8FD75810F020847F0
:04091500020A00FED4
:10088C00750A00750BFEE4F508F5091208EFE50B87
:10089C0025E0F50BE50A33F50A050BE50B700205AF
:1008AC000A0509E50970020508C39408E508648087
:1008BC00948040D7750E00750F08D3E50F9400E5B2
:1008CC000E6480948040B91208EFE50AA2E713F594
:1008DC000AE50B13F50B430B80E50F150F70DB15B9
:0308EC000E80D7A4
:0708EF00850B907F107E27AE
:1008F600E4F50CF50DC3E50D9FEE6480F8E50C6498
:0F0906008098500A050DE50D70EB050C80E72277
:10080C0002088CE493A3F8E493A34003F68001F26E
:10081C0008DFF48029E493A3F85407240CC8C333ED
:10082C00C4540F4420C8834004F456800146F6DFBC
:10083C00E4800B0102040810204080900915E47E2E
:10084C00019360BCA3FF543F30E509541FFEE493B1
:10085C00A360010ECF54C025E060A840B8E493A378
:10086C00FAE493A3F8E493A3C8C582C8CAC583CAA3
:10087C00F0A3C8C582C8CAC583CADFE9DEE780BE5B
:0109190000DD
:00000001FF
