:03000000020800F3
:0C080000787FE4F6D8FD758110020847EF
:0809150002080003020A00FEC3
:10088C00750E01AF0EEF3395E0FED3EF9509E50839
:10089C006480F8EE648098504E750F011208F4E5F0
:1008AC000B25E0F50BE50A33F50A050BE50B700299
:1008BC00050A050FC3E50F6480948840DF751001AD
:1008CC001208F4E50AA2E713F50AE50B13F50B433E
:1008DC000B500510C3E5106480948840E3750A0042
:0708EC00750BFE050E809C58
:0108F30022E2
:0708F400850B907FE87E03F5
:1008FB00D3E50D9FEE6480F8E50C648098500A05F3
:0A090B000DE50D70EB050C80E722EE
:10080C0002088CE493A3F8E493A34003F68001F26E
:10081C0008DFF48029E493A3F85407240CC8C333ED
:10082C00C4540F4420C8834004F456800146F6DFBC
:10083C00E4800B0102040810204080900915E47E2E
:10084C00019360BCA3FF543F30E509541FFEE493B1
:10085C00A360010ECF54C025E060A840B8E493A378
:10086C00FAE493A3F8E493A3C8C582C8CAC583CAA3
:10087C00F0A3C8C582C8CAC583CADFE9DEE780BE5B
:01091D0000D9
:00000001FF
