:03000000020800F3
:0C080000787FE4F6D8FD758110020847EF
:08092C0002080003020A00FEAC
:10088C00750E01AF0EEF3395E0FED3EF9509E50839
:10089C006480F8EE6480985065750F01AF0FEF33EC
:1008AC0095E0FEC3EF9408EE64809480501A120910
:1008BC000BE50B25E0F50BE50A33F50A050BE50B0B
:1008CC007002050A050F80D4751001AF10EF339537
:1008DC00E0FEC3EF9408EE64809480501612090B6E
:1008EC00E50AA2E713F50AE50B13F50B430B5005CC
:0E08FC001080D8750A00750BFE050E02088FDD
:01090A0022CA
:07090B00850B907FE87E03DD
:10091200D3E50D9FEE6480F8E50C648098500A05DB
:0A0922000DE50D70EB050C80E722D7
:10080C0002088CE493A3F8E493A34003F68001F26E
:10081C0008DFF48029E493A3F85407240CC8C333ED
:10082C00C4540F4420C8834004F456800146F6DFBC
:10083C00E4800B010204081020408090092CE47E17
:10084C00019360BCA3FF543F30E509541FFEE493B1
:10085C00A360010ECF54C025E060A840B8E493A378
:10086C00FAE493A3F8E493A3C8C582C8CAC583CAA3
:10087C00F0A3C8C582C8CAC583CADFE9DEE780BE5B
:0109340000C2
:00000001FF
