:0300000002094AA8
:0C094A00787FE4F6D8FD758117020800E4
:10087E00FFFFFFFFFFFFFFF7FFFFFFFFFFFFF7FF8A
:10088E00FFFFFFFFFFF7FFFFFFFFFFFFF7FFFFFF7A
:10089E00FFFFFFF7FFFFFFFFFFFFF7FFFFFFFFFF6A
:1008AE00FFF7FFFFFFFFFFFFF7FFFFFFFFFFFFFF5A
:1008BE00FFF7FFFFFFFFFFFFFFFFF7FFFFFFFFFF4A
:1008CE00FFFFFFF7FFFFFFFFFFFFFFFFF7FFFFFF3A
:1008DE00FFFFFFFFFFF7FFFFFFFFFFFFFFFFF7FF2A
:0808EE00FFFFFFFFFFFFFFF712
:10080000E4F510F51174082511F876FF0511E511CE
:10081000700205106408451070EBE4F510F511E462
:10082000FFFE74092FF8E6FD74082FF8A605747E04
:100830002511F58274083510F583E493FD74082FB3
:10084000F8A6050FBF00010EEF64074E70D4E4F563
:1008500012F5131208F60513E51370020512C3947E
:1008600032E5126480948040EA0511E511700205BA
:0E08700010C39450E5106480948040A3809CD7
:1008F600751600751701E4F514F51574082515F835
:10090600E6F5908517A07F327E00120932E517259D
:10091600E0F517E51633F5160515E515700205140D
:0B092600C39408E5146480948040D066
:0109310022A3
:10093200E4FDFCC3ED9FEE6480F8EC648098500700
:070942000DBD00010C80EC6B
:01094900228B
:00000001FF
