:030000000209A052
:0C09A000787FE4F6D8FD7581190208008C
:0809AC00FEFFFFFFFFFFFFFF4C
:10080000E4F508F50974122509F876FF0509E509EC
:10081000700205086408450870EBE4F508F509E482
:10082000F50AF50BAF0B74132FF8E6FE74122FF8D0
:10083000A606050BE50B7002050A6407450A70E47D
:1008400074AC2509F58274093508F583E493FF74C7
:1008500012250BF8A607E4F50CF50D12094C050D51
:10086000E50D7002050CC39432E50C648094804061
:10087000EA0509E50970020508C39408E5086480E3
:100880009480409BE4F508F50974122509F876FF79
:100890000509E509700205086408450870EBE4F5F0
:1008A00008F509C3E5099408E508648094804003CD
:1008B00002081AE4F50AF50BAF0B74132FF8E6FEE5
:1008C00074122FF8A606050BE50B7002050A6407E3
:1008D000450A70E474AC2509F58274093508F5837E
:1008E000E493FF7412250BF8A607E4F50CF50D123E
:1008F000090F050DE50D7002050CC39432E50C647B
:0F09000080948040EA0509E50970980508809405
:10094C00751000751101E4F50EF50F7412250FF8F2
:10095C00E6F5908511A07F327E00120988E51125FD
:10096C00E0F511E51033F510050FE50F7002050EDB
:0B097C00C39408E50E6480948040D016
:01098700224D
:10090F00751000751180E4F50EF50F7412250FF8B0
:10091F00E6F5908511A07F327E00120988E510A2BE
:10092F00E713F510E51113F511050FE50F7002052B
:0C093F000EC39408E50E6480948040CF45
:01094B002289
:10098800E4FDFCC3ED9FEE6480F8EC6480985007AA
:070998000DBD00010C80EC15
:01099F002235
:00000001FF
