:03000000020800F3
:0C080000787FE4F6D8FD758119020847E6
:10095500080E59554B492E4E3E20060852656164D6
:02096500793FD8
:10088C00120940120968E4F516F517740E1208CD1A
:10089C000517E51770020516C39408E516648094D5
:1008AC008040E8E4F516F51774081208CD0517E535
:1008BC001770020516C39406E5166480948040E810
:0108CC002209
:100940007F307E0012090E7F067E0012090E7F0E98
:050950007E0002090E0B
:070968007F027E0002090E70
:10090E008E188F191208F1851990E4F5A075A004C0
:0A091E007F64FE120928E4F5A02210
:0908CD002517F8E6FF3395E0FE63
:1008D6008E188F191208F185199075A00175A0055B
:0B08E6007F647E0012092875A001222B
:1008F10075A00275A0067F647E00120928AF907E64
:0C09010000530780EF648060F475A002D2
:01090D0022C7
:10092800E4FDFCC3ED9FEE6480F8EC64809850070A
:070938000DBD00010C80EC75
:01093F002295
:10080C0002088CE493A3F8E493A34003F68001F26E
:10081C0008DFF48029E493A3F85407240CC8C333ED
:10082C00C4540F4420C8834004F456800146F6DFBC
:10083C00E4800B0102040810204080900955E47EEE
:10084C00019360BCA3FF543F30E509541FFEE493B1
:10085C00A360010ECF54C025E060A840B8E493A378
:10086C00FAE493A3F8E493A3C8C582C8CAC583CAA3
:10087C00F0A3C8C582C8CAC583CADFE9DEE780BE5B
:01096700008F
:00000001FF
