:03000000020800F3
:0C080000787FE4F6D8FD75810F020847F0
:0808EE0002080000020C00FEEC
:10088C00E5094508703CF50AF50B850D907F587EFF
:10089C001B1208CFE50D25E0F50DE50C33F50C0525
:1008AC000DE50D7002050C050BE50B7002050AC376
:1008BC009408E50A6480948040D0750C00750DFE98
:0308CC0080BE22C9
:1008CF00E4F50EF50FC3E50F9FEE6480F8E50E64B7
:0F08DF008098500A050FE50F70EB050E80E72299
:10080C0002088CE493A3F8E493A34003F68001F26E
:10081C0008DFF48029E493A3F85407240CC8C333ED
:10082C00C4540F4420C8834004F456800146F6DFBC
:10083C00E4800B01020408102040809008EEE47E56
:10084C00019360BCA3FF543F30E509541FFEE493B1
:10085C00A360010ECF54C025E060A840B8E493A378
:10086C00FAE493A3F8E493A3C8C582C8CAC583CAA3
:10087C00F0A3C8C582C8CAC583CADFE9DEE780BE5B
:0108F6000001
:00000001FF
