:03000000020922D0
:0C092200787FE4F6D8FD7581170208000C
:10087E00FF815E6E767A81FFFF7F7F7D007F7FFF37
:10088E00FF1D6E6E6E6E71FFFFBD7E76767689FFF2
:10089E00FFE3EDEEEF00EFFFFFB0767676768EFF9C
:1008AE00FF81767676768DFFFFFCFEFE06FAFCFF64
:1008BE00FF897676767689FFFFB16E6E6E6E81FF5A
:10080000E4F510F51174082511F876FF0511E511CE
:10081000700205106408451070EBE4F510F511E462
:10082000FFFE74092FF8E6FD74082FF8A6050FBF28
:1008300000010EEF64074E70E9747E2511F5827495
:10084000083510F583E493FD74082FF8A605E4F548
:1008500012F5131208CE0513E51370020512C394A6
:1008600032E5126480948040EA0511E511700205BA
:0E08700010C39450E5106480948040A3809CD7
:1008CE00751600751701E4F514F51574082515F85D
:1008DE00E6F5908517A07F327E0012090AE51725EE
:1008EE00E0F517E51633F5160515E5157002051436
:0B08FE00C39408E5146480948040D08F
:0109090022CB
:10090A00E4FDFCC3ED9FEE6480F8EC648098500728
:07091A000DBD00010C80EC93
:0109210022B3
:00000001FF
