:03000000020800F3
:0C080000787FE4F6D8FD758119020847E6
:10097A000E0C3F065B4F666D7D7F6F77395E79712E
:06098A000408080402014C
:0809A6001208F612088C80F81B
:1008F6007D057C00E4FFFE12099712095EE4FDFC0B
:100906007F01FE12099712095E7F021209911209F0
:100916005E7D037C007F037E0012099712095E7DCF
:10092600017C00E4FFFE12099712095E7D017C003E
:100936007F017E0012099712095EE4FDFC7F02FE2C
:1009460012099712095E7D027C007F037E00120960
:08095600977F107E2702096261
:10088C007D057C00E4FFFE12099712095EE4FDFC75
:10089C007F01FE12099712095E7D067C007F027EA5
:1008AC000012099712095E7D037C007F037E001203
:1008BC00099712095E7D017C00E4FFFE1209971274
:1008CC00095E7D017C007F017E0012099712095E92
:1008DC007D017C007F027E0012099712095E7F0366
:0A08EC001209917F107E27020962B5
:060991007D067C007E00E3
:0F09970074082FF8E6F5A0740C2DF8E6F5902201
:04095E007F107E2761
:10096200E4FDFCC3ED9FEE6480F8EC6480985007D0
:070972000DBD00010C80EC3B
:01097900225B
:10080C000209A6E493A3F8E493A34003F68001F253
:10081C0008DFF48029E493A3F85407240CC8C333ED
:10082C00C4540F4420C8834004F456800146F6DFBC
:10083C00E4800B010204081020408090097AE47EC9
:10084C00019360BCA3FF543F30E509541FFEE493B1
:10085C00A360010ECF54C025E060A840B8E493A378
:10086C00FAE493A3F8E493A3C8C582C8CAC583CAA3
:10087C00F0A3C8C582C8CAC583CADFE9DEE780BE5B
:010990000066
:00000001FF
