:0300000002088073
:0C088000787FE4F6D8FD75810B020800BB
:10086A003F065B4F666D7D7F6F77395E7971050054
:06087A000603010100026B
:0908000075A00FE4F508E4F50908
:10080900AF09EF3395E0FE74782FF58274083EF551
:1008190083E493FF3395E0F50A8F0BFE746A2FF595
:100829008274083EF583E493F5907F207E4E12088A
:01083900526C
:10083A000509C3E5096480948840C40508C3E5082E
:08084A006480948840B680B17F
:10085200E4FDFCC3ED9FEE6480F8EC6480985007E1
:070862000DBD00010C80EC4C
:01086900226C
:00000001FF
