:030000000208C231
:0C08C200787FE4F6D8FD75810B02080079
:1008000012089F1208B47F307E00120852E4F508E7
:10081000F5097F107E271208877F1C7E0012086D65
:100820000509E50970020508C39410E50864809481
:050830008040DF80CED6
:10089F007F307E0012086D7F067E0012086D7F0E7E
:0508AF007E0002086D4F
:0E08B4007F017E0012086D7F027E0002086D3B
:10086D008E0A8F0B120835850B90E4F5A075A00448
:0A087D007F64FE120887E4F5A02254
:100852008E0A8F0B120835850B9075A00175A005C5
:0B0862007F647E0012088775A0012251
:1008350075A00275A0067F647E00120887AF907EC2
:0C08450000530780EF648060F475A0028F
:010851002284
:10088700E4FDFCC3ED9FEE6480F8EC6480985007AC
:070897000DBD00010C80EC17
:01089E002237
:00000001FF
