:03000000020800F3
:0C080000787FE4F6D8FD75812E020847D1
:10091200101F3F065B4F666D7D077F6F777C395EE8
:100922007971100CEEDEBE7EEDDDBD7DEBDBBB7BB7
:10093200E7D7B777011CF0010800010904010A0892
:03094200010B0C9A
:10088C0075904075A00F851CB085B01DAF1DEF3362
:10089C0095E0FEEF64F04E60ED85B01DAF1DEF33BB
:1008AC0095E0FEEF64F04E60DDAD087FFE1208D3DC
:1008BC00AD097FFD1208D3AD0A7FFB1208D3AD0B37
:0708CC007FF71208D380BF83
:1008D3008FB085B01D8D1EEDFF3395E0FEEF240430
:1008E300FFE43EFEE51EFB3395E0FAC3EB9FEE64A7
:1008F30080F8EA6480985016740C251EF8E6B51D3E
:0F09030009741F251EF8E6F59022051E80C922F3
:10080C0002088CE493A3F8E493A34003F68001F26E
:10081C0008DFF48029E493A3F85407240CC8C333ED
:10082C00C4540F4420C8834004F456800146F6DFBC
:10083C00E4800B0102040810204080900912E47E31
:10084C00019360BCA3FF543F30E509541FFEE493B1
:10085C00A360010ECF54C025E060A840B8E493A378
:10086C00FAE493A3F8E493A3C8C582C8CAC583CAA3
:10087C00F0A3C8C582C8CAC583CADFE9DEE780BE5B
:0109450000B1
:00000001FF
