:03000000020800F3
:0C080000787FE4F6D8FD75816702084798
:10090200205008FF815E6E767A81FFFF7F7F7D0037
:100912007F7FFFFF1D6E6E6E6E71FFFFBD7E76766E
:100922007689FFFFE3EDEEEF00EFFFFFB07676761C
:10093200768EFFFF81767676768DFFFFFCFEFE06D1
:10094200FAFCFFFF897676767689FFFFB16E6E6ECE
:030952006E81FFB4
:10088C00E4F560F56174582561F876FF0561E56162
:10089C00700205606408456070EBE4F560F561E496
:1008AC00FFFE74592FF8E6FD74582FF8A60574084E
:1008BC002561F8E6FD74582FF8A6050FBF00010E50
:1008CC00EF64074E70DCE4F562F5631209560563BC
:1008DC00E56370020562C39432E5626480948040E3
:1008EC00EA0561E56170020560C39450E5606480BF
:0608FC00948040AB80A4D3
:10095600756600756701E4F564F56574582565F8F4
:10096600E6F5908567A07F327E00120992E567253D
:10097600E0F567E56633F5660565E56570020564CD
:0B098600C39408E5646480948040D0B6
:010991002243
:10099200E4FDFCC3ED9FEE6480F8EC6480985007A0
:0709A2000DBD00010C80EC0B
:0109A900222B
:10080C0002088CE493A3F8E493A34003F68001F26E
:10081C0008DFF48029E493A3F85407240CC8C333ED
:10082C00C4540F4420C8834004F456800146F6DFBC
:10083C00E4800B0102040810204080900902E47E41
:10084C00019360BCA3FF543F30E509541FFEE493B1
:10085C00A360010ECF54C025E060A840B8E493A378
:10086C00FAE493A3F8E493A3C8C582C8CAC583CAA3
:10087C00F0A3C8C582C8CAC583CADFE9DEE780BE5B
:0109550000A1
:00000001FF
