:030000000208E80B
:0C08E800787FE4F6D8FD75813B02092FF3
:1009740008167FBFDFEFF7FBFDFE071E7EBEDEEE2F
:10098400F6FAFC06257CBCDCECF4F8052B78B8D828
:10099400E8F0043070B0D0E0033460A0C002374007
:0409A4008001390095
:10080000E4F508F509741625091209A90509E50991
:1008100070020508C39408E5086480948040E6E40B
:10082000F50AF50B741E250B1209A9050BE50B70D3
:1008300002050AC39407E50A6480948040E6E4F563
:100840000CF50D7425250D1209A9050DE50D700295
:10085000050CC39406E50C6480948040E6E4F50E34
:10086000F50F742B250F1209A9050FE50F7002056E
:100870000EC39405E50E6480948040E6E4F510F51F
:1008800011743025111209A90511E5117002051026
:10089000C39404E5106480948040E6E4F512F513F7
:1008A000743425131209A90513E51370020512C348
:1008B0009403E5126480948040E6E4F514F5157421
:1008C0003725151209A90515E51570020514C394FD
:1008D00002E5146480948040E68539901209AD7574
:0808E00090FF1209AD020800AF
:0809A900F8E6F5907F107E27AF
:1009B100D3E53B9FEE6480F8E53A648098500A05E0
:0909C1003BE53B70EB053A80E7D1
:0109CA00220A
:1008F400020800E493A3F8E493A34003F68001F212
:1009040008DFF48029E493A3F85407240CC8C33304
:10091400C4540F4420C8834004F456800146F6DFD3
:10092400E4800B0102040810204080900974E47EE6
:10093400019360BCA3FF543F30E509541FFEE493C8
:10094400A360010ECF54C025E060A840B8E493A38F
:10095400FAE493A3F8E493A3C8C582C8CAC583CABA
:10096400F0A3C8C582C8CAC583CADFE9DEE780BE72
:0109A800004E
:00000001FF
