:030000000208D91A
:0C08D900787FE4F6D8FD75813F0209200D
:10096500022C00000830808113878F9FBFFF080885
:10097500804020100804020107108141211109055A
:10098500030617134323130B07051D874727170F67
:1009950004228F4F2F1F03269F5F3F0229BF7F0130
:0209A5002BFF26
:10080000E52D452C60030208D8F538AF301209A851
:1008100074082538F8E6FF0538D3E53864809487F6
:1008200040E9E4F539AF311209A874102539F8E62A
:10083000FF0539D3E5396480948740E9E4F53AAFA0
:10084000321209A87417253AF8E6FF053AD3E53ABB
:100850006480948740E9E4F53BAF331209A8741D26
:10086000253BF8E6FF053BD3E53B6480948740E9F0
:10087000E4F53CAF341209A87422253CF8E6FF05E4
:100880003CD3E53C6480948740E9E4F53DAF351204
:1008900009A87426253DF8E6FF053DD3E53D6480B3
:1008A000948740E9E4F53EAF361209A87429253E45
:1008B000F8E6FF053ED3E53E6480948740E9E4F521
:1008C0003FD3E53F648094874003020800AF3712AE
:0808D00009A8AF2B053F80E9E8
:0108D80022FD
:0609A8008F907FE87E0342
:1009AE00D3E52F9FEE6480F8E52E648098500A05FB
:0A09BE002FE52F70EB052E80E722D5
:1008E500020800E493A3F8E493A34003F68001F221
:1008F50008DFF48029E493A3F85407240CC8C33314
:10090500C4540F4420C8834004F456800146F6DFE2
:10091500E4800B0102040810204080900965E47E04
:10092500019360BCA3FF543F30E509541FFEE493D7
:10093500A360010ECF54C025E060A840B8E493A39E
:10094500FAE493A3F8E493A3C8C582C8CAC583CAC9
:10095500F0A3C8C582C8CAC583CADFE9DEE780BE81
:0109A700004F
:00000001FF
