:03000000020936BC
:0C093600787FE4F6D8FD75813D02097D54
:1009C2000808FEFCFBF7EFCFBF7F07107E7C7B772A
:1009D2006F5F3F06173E3C3B372F1F051D1E1C1B3A
:1009E200170F04220E0C0B07032606050302290229
:0409F20001012B00D4
:10080000E4F52EAF2EEF3395E0FED3EF9407EE64C0
:1008100080948050128536901209F77408252EF8BE
:10082000E6F536052E80DCE4F52FAF2FEF3395E0AB
:10083000FED3EF9407EE64809480501285379012B7
:1008400009F77410252FF8E6F537052F80DCE4F55D
:1008500030AF30EF3395E0FED3EF9407EE64809431
:100860008050128538901209F774172530F8E6F594
:1008700038053080DCE4F531AF31EF3395E0FED35D
:10088000EF9407EE6480948050128539901209F736
:10089000741D2531F8E6F539053180DCE4F532AF19
:1008A00032EF3395E0FED3EF9407EE6480948050EE
:1008B00012853A901209F774222532F8E6F53A05C6
:1008C0003280DCE4F533AF33EF3395E0FED3EF94C1
:1008D00007EE648094805012853B901209F77426CD
:1008E0002533F8E6F53B053380DCE4F534AF34EF2F
:1008F0003395E0FED3EF9407EE6480948050128528
:100900003C901209F774292534F8E6F53C0534804B
:10091000DCE4F535AF35EF3395E0FED3EF9407EE29
:10092000648094804003020800853D901209F78599
:060930002B3D053580DEC1
:0409F7007F107E27C8
:1009FB00D3E52D9FEE6480F8E52C648098500A05B2
:0A0A0B002DE52D70EB052C80E7228D
:10094200020800E493A3F8E493A34003F68001F2C3
:1009520008DFF48029E493A3F85407240CC8C333B6
:10096200C4540F4420C8834004F456800146F6DF85
:10097200E4800B01020408102040809009C2E47E4A
:10098200019360BCA3FF543F30E509541FFEE4937A
:10099200A360010ECF54C025E060A840B8E493A341
:1009A200FAE493A3F8E493A3C8C582C8CAC583CA6C
:1009B200F0A3C8C582C8CAC583CADFE9DEE780BE24
:0109F6000000
:00000001FF
