:03000000020800F3
:0C080000787FE4F6D8FD758111020847EE
:08092C008142241818244281C5
:0C091F00020A0000020E0081020800180D
:10088C00E50B450A706DF510850F907FE87E03121D
:10089C000900AF10EF3395E0FE742C2FF58274092C
:1008AC003EF583E493FF3395E0F50E8F0F0510C3EF
:1008BC00E5106480948340D0E4F5118509907FE8BD
:1008CC007E03120900AF11EF3395E0FE74302FF563
:1008DC008274093EF583E493FF3395E0F5088F09A4
:1008EC000511C3E5116480948340D0750E00750F1B
:0308FC0081808D6B
:0108FF0022D6
:10090000E4F50CF50DC3E50D9FEE6480F8E50C648D
:0F0910008098500A050DE50D70EB050C80E7226D
:10080C0002088CE493A3F8E493A34003F68001F26E
:10081C0008DFF48029E493A3F85407240CC8C333ED
:10082C00C4540F4420C8834004F456800146F6DFBC
:10083C00E4800B010204081020408090091FE47E24
:10084C00019360BCA3FF543F30E509541FFEE493B1
:10085C00A360010ECF54C025E060A840B8E493A378
:10086C00FAE493A3F8E493A3C8C582C8CAC583CAA3
:10087C00F0A3C8C582C8CAC583CADFE9DEE780BE5B
:01092B0000CB
:00000001FF
