:03000000020800F3
:0C080000787FE4F6D8FD758111020847EE
:0708FA007EBDDBE7DBBD7EE4
:0C08ED00020A0000020E007E020800E774
:10088C00E50B450A703BF510F511C3E5119407E52E
:10089C00106480948050E9850F907F107E27120899
:1008AC00CE74FA2511F58274083510F583E493FFA4
:1008BC003395E0F50E8F0F0511E51170CD05108005
:0108CC00C962
:0108CD002208
:1008CE00E4F50CF50DC3E50D9FEE6480F8E50C64C0
:0F08DE008098500A050DE50D70EB050C80E722A0
:10080C0002088CE493A3F8E493A34003F68001F26E
:10081C0008DFF48029E493A3F85407240CC8C333ED
:10082C00C4540F4420C8834004F456800146F6DFBC
:10083C00E4800B01020408102040809008EDE47E57
:10084C00019360BCA3FF543F30E509541FFEE493B1
:10085C00A360010ECF54C025E060A840B8E493A378
:10086C00FAE493A3F8E493A3C8C582C8CAC583CAA3
:10087C00F0A3C8C582C8CAC583CADFE9DEE780BE5B
:0108F90000FE
:00000001FF
