:03000000020800F3
:0C080000787FE4F6D8FD758113020847EC
:0E08E700050D3F065B4F660508000102030485
:10088C0075A00F7F01EFFD3395E0FCD3ED9404ECE4
:10089C006480948050ED7E01EEFD3395E0FCD3ED49
:0908AC009404EC64809480501760
:1008B50074082EF8E6FD3395E0F5128D13740D2DB1
:0408C500F8E6F590CC
:0608C9000E80D80F80C272
:1008CF00E4FDFCC3ED9FEE6480F8EC648098500764
:0708DF000DBD00010C80ECCF
:0108E60022EF
:10080C0002088CE493A3F8E493A34003F68001F26E
:10081C0008DFF48029E493A3F85407240CC8C333ED
:10082C00C4540F4420C8834004F456800146F6DFBC
:10083C00E4800B01020408102040809008E7E47E5D
:10084C00019360BCA3FF543F30E509541FFEE493B1
:10085C00A360010ECF54C025E060A840B8E493A378
:10086C00FAE493A3F8E493A3C8C582C8CAC583CAA3
:10087C00F0A3C8C582C8CAC583CADFE9DEE780BE5B
:0108F5000002
:00000001FF
